{
  "contractName": "ChainList",
  "abi": [
    {
      "anonymous": false,
      "inputs": [
        {
          "indexed": true,
          "internalType": "uint256",
          "name": "_id",
          "type": "uint256"
        },
        {
          "indexed": true,
          "internalType": "address",
          "name": "_seller",
          "type": "address"
        },
        {
          "indexed": true,
          "internalType": "address",
          "name": "_buyer",
          "type": "address"
        },
        {
          "indexed": false,
          "internalType": "string",
          "name": "_name",
          "type": "string"
        },
        {
          "indexed": false,
          "internalType": "uint256",
          "name": "_price",
          "type": "uint256"
        }
      ],
      "name": "LogBuyArticle",
      "type": "event"
    },
    {
      "anonymous": false,
      "inputs": [
        {
          "indexed": true,
          "internalType": "uint256",
          "name": "_id",
          "type": "uint256"
        },
        {
          "indexed": true,
          "internalType": "address",
          "name": "_seller",
          "type": "address"
        },
        {
          "indexed": false,
          "internalType": "string",
          "name": "_name",
          "type": "string"
        },
        {
          "indexed": false,
          "internalType": "uint256",
          "name": "_price",
          "type": "uint256"
        }
      ],
      "name": "LogSellArticle",
      "type": "event"
    },
    {
      "inputs": [
        {
          "internalType": "uint256",
          "name": "",
          "type": "uint256"
        }
      ],
      "name": "articles",
      "outputs": [
        {
          "internalType": "uint256",
          "name": "id",
          "type": "uint256"
        },
        {
          "internalType": "address payable",
          "name": "seller",
          "type": "address"
        },
        {
          "internalType": "address payable",
          "name": "buyer",
          "type": "address"
        },
        {
          "internalType": "string",
          "name": "name",
          "type": "string"
        },
        {
          "internalType": "string",
          "name": "description",
          "type": "string"
        },
        {
          "internalType": "uint256",
          "name": "price",
          "type": "uint256"
        }
      ],
      "stateMutability": "view",
      "type": "function",
      "constant": true
    },
    {
      "inputs": [],
      "name": "owner",
      "outputs": [
        {
          "internalType": "address payable",
          "name": "",
          "type": "address"
        }
      ],
      "stateMutability": "view",
      "type": "function",
      "constant": true
    },
    {
      "inputs": [],
      "name": "killContract",
      "outputs": [],
      "stateMutability": "nonpayable",
      "type": "function"
    },
    {
      "inputs": [
        {
          "internalType": "string",
          "name": "_name",
          "type": "string"
        },
        {
          "internalType": "string",
          "name": "_description",
          "type": "string"
        },
        {
          "internalType": "uint256",
          "name": "_price",
          "type": "uint256"
        }
      ],
      "name": "sellArticle",
      "outputs": [],
      "stateMutability": "nonpayable",
      "type": "function"
    },
    {
      "inputs": [],
      "name": "getNumberOfArticle",
      "outputs": [
        {
          "internalType": "uint256",
          "name": "",
          "type": "uint256"
        }
      ],
      "stateMutability": "view",
      "type": "function",
      "constant": true
    },
    {
      "inputs": [],
      "name": "getArticlesForSale",
      "outputs": [
        {
          "internalType": "uint256[]",
          "name": "",
          "type": "uint256[]"
        }
      ],
      "stateMutability": "view",
      "type": "function",
      "constant": true
    },
    {
      "inputs": [
        {
          "internalType": "uint256",
          "name": "_id",
          "type": "uint256"
        }
      ],
      "name": "buyArticle",
      "outputs": [],
      "stateMutability": "payable",
      "type": "function",
      "payable": true
    }
  ],
  "bytecode": "0x6080604052600060025534801561001557600080fd5b50336000806101000a81548173ffffffffffffffffffffffffffffffffffffffff021916908373ffffffffffffffffffffffffffffffffffffffff16021790555061118f806100656000396000f3fe6080604052600436106100705760003560e01c80637f6be3da1161004e5780637f6be3da146100d35780638da5cb5b146100fe578063d260951514610129578063edcfafe61461015257610070565b80631c02708d146100755780631cc4baa81461008c578063518f0d24146100a8575b600080fd5b34801561008157600080fd5b5061008a610194565b005b6100a660048036038101906100a19190610b31565b610225565b005b3480156100b457600080fd5b506100bd610499565b6040516100ca9190610b6d565b60405180910390f35b3480156100df57600080fd5b506100e86104a3565b6040516100f59190610c46565b60405180910390f35b34801561010a57600080fd5b50610113610678565b6040516101209190610ca9565b60405180910390f35b34801561013557600080fd5b50610150600480360381019061014b9190610e0a565b61069c565b005b34801561015e57600080fd5b5061017960048036038101906101749190610b31565b6108b8565b60405161018b96959493929190610f1d565b60405180910390f35b60008054906101000a900473ffffffffffffffffffffffffffffffffffffffff1673ffffffffffffffffffffffffffffffffffffffff163373ffffffffffffffffffffffffffffffffffffffff16146101ec57600080fd5b60008054906101000a900473ffffffffffffffffffffffffffffffffffffffff1673ffffffffffffffffffffffffffffffffffffffff16ff5b60006002541161023457600080fd5b60008111801561024657506002548111155b61024f57600080fd5b6000600160008381526020019081526020016000209050600073ffffffffffffffffffffffffffffffffffffffff168160020160009054906101000a900473ffffffffffffffffffffffffffffffffffffffff1673ffffffffffffffffffffffffffffffffffffffff16146102c357600080fd5b8060010160009054906101000a900473ffffffffffffffffffffffffffffffffffffffff1673ffffffffffffffffffffffffffffffffffffffff163373ffffffffffffffffffffffffffffffffffffffff16141561032057600080fd5b8060050154341461033057600080fd5b338160020160006101000a81548173ffffffffffffffffffffffffffffffffffffffff021916908373ffffffffffffffffffffffffffffffffffffffff1602179055508060010160009054906101000a900473ffffffffffffffffffffffffffffffffffffffff1673ffffffffffffffffffffffffffffffffffffffff166108fc349081150290604051600060405180830381858888f193505050501580156103dd573d6000803e3d6000fd5b508060020160009054906101000a900473ffffffffffffffffffffffffffffffffffffffff1673ffffffffffffffffffffffffffffffffffffffff168160010160009054906101000a900473ffffffffffffffffffffffffffffffffffffffff1673ffffffffffffffffffffffffffffffffffffffff16837f5d28bc06e6f0c45405abfe77bd77236c767f9bd9d044ae2d954a415a2b4823e084600301856005015460405161048d929190611082565b60405180910390a45050565b6000600254905090565b6060600060025467ffffffffffffffff8111156104c3576104c2610cdf565b5b6040519080825280602002602001820160405280156104f15781602001602082028036833780820191505090505b509050600080600190505b60025481116105c857600073ffffffffffffffffffffffffffffffffffffffff166001600083815260200190815260200160002060020160009054906101000a900473ffffffffffffffffffffffffffffffffffffffff1673ffffffffffffffffffffffffffffffffffffffff1614156105b557600160008281526020019081526020016000206000015483838151811061059a576105996110b2565b5b60200260200101818152505081806105b190611110565b9250505b80806105c090611110565b9150506104fc565b5060008167ffffffffffffffff8111156105e5576105e4610cdf565b5b6040519080825280602002602001820160405280156106135781602001602082028036833780820191505090505b50905060005b8281101561066e57838181518110610634576106336110b2565b5b602002602001015182828151811061064f5761064e6110b2565b5b602002602001018181525050808061066690611110565b915050610619565b5080935050505090565b60008054906101000a900473ffffffffffffffffffffffffffffffffffffffff1681565b600260008154809291906106af90611110565b9190505550600254600160006002548152602001908152602001600020600001819055503360016000600254815260200190815260200160002060010160006101000a81548173ffffffffffffffffffffffffffffffffffffffff021916908373ffffffffffffffffffffffffffffffffffffffff160217905550600060016000600254815260200190815260200160002060020160006101000a81548173ffffffffffffffffffffffffffffffffffffffff021916908373ffffffffffffffffffffffffffffffffffffffff1602179055508260016000600254815260200190815260200160002060030190805190602001906107ae929190610a44565b508160016000600254815260200190815260200160002060040190805190602001906107db929190610a44565b50806001600060025481526020019081526020016000206005018190555060016000600254815260200190815260200160002060010160009054906101000a900473ffffffffffffffffffffffffffffffffffffffff1673ffffffffffffffffffffffffffffffffffffffff166002547fe2ebb0c522a8b90a93f45a5dfd3c0e0516b81519fdf199efe51c474642fe8cec600160006002548152602001908152602001600020600301600160006002548152602001908152602001600020600501546040516108ab929190611082565b60405180910390a3505050565b60016020528060005260406000206000915090508060000154908060010160009054906101000a900473ffffffffffffffffffffffffffffffffffffffff16908060020160009054906101000a900473ffffffffffffffffffffffffffffffffffffffff169080600301805461092d90610fbb565b80601f016020809104026020016040519081016040528092919081815260200182805461095990610fbb565b80156109a65780601f1061097b576101008083540402835291602001916109a6565b820191906000526020600020905b81548152906001019060200180831161098957829003601f168201915b5050505050908060040180546109bb90610fbb565b80601f01602080910402602001604051908101604052809291908181526020018280546109e790610fbb565b8015610a345780601f10610a0957610100808354040283529160200191610a34565b820191906000526020600020905b815481529060010190602001808311610a1757829003601f168201915b5050505050908060050154905086565b828054610a5090610fbb565b90600052602060002090601f016020900481019282610a725760008555610ab9565b82601f10610a8b57805160ff1916838001178555610ab9565b82800160010185558215610ab9579182015b82811115610ab8578251825591602001919060010190610a9d565b5b509050610ac69190610aca565b5090565b5b80821115610ae3576000816000905550600101610acb565b5090565b6000604051905090565b600080fd5b600080fd5b6000819050919050565b610b0e81610afb565b8114610b1957600080fd5b50565b600081359050610b2b81610b05565b92915050565b600060208284031215610b4757610b46610af1565b5b6000610b5584828501610b1c565b91505092915050565b610b6781610afb565b82525050565b6000602082019050610b826000830184610b5e565b92915050565b600081519050919050565b600082825260208201905092915050565b6000819050602082019050919050565b610bbd81610afb565b82525050565b6000610bcf8383610bb4565b60208301905092915050565b6000602082019050919050565b6000610bf382610b88565b610bfd8185610b93565b9350610c0883610ba4565b8060005b83811015610c39578151610c208882610bc3565b9750610c2b83610bdb565b925050600181019050610c0c565b5085935050505092915050565b60006020820190508181036000830152610c608184610be8565b905092915050565b600073ffffffffffffffffffffffffffffffffffffffff82169050919050565b6000610c9382610c68565b9050919050565b610ca381610c88565b82525050565b6000602082019050610cbe6000830184610c9a565b92915050565b600080fd5b600080fd5b6000601f19601f8301169050919050565b7f4e487b7100000000000000000000000000000000000000000000000000000000600052604160045260246000fd5b610d1782610cce565b810181811067ffffffffffffffff82111715610d3657610d35610cdf565b5b80604052505050565b6000610d49610ae7565b9050610d558282610d0e565b919050565b600067ffffffffffffffff821115610d7557610d74610cdf565b5b610d7e82610cce565b9050602081019050919050565b82818337600083830152505050565b6000610dad610da884610d5a565b610d3f565b905082815260208101848484011115610dc957610dc8610cc9565b5b610dd4848285610d8b565b509392505050565b600082601f830112610df157610df0610cc4565b5b8135610e01848260208601610d9a565b91505092915050565b600080600060608486031215610e2357610e22610af1565b5b600084013567ffffffffffffffff811115610e4157610e40610af6565b5b610e4d86828701610ddc565b935050602084013567ffffffffffffffff811115610e6e57610e6d610af6565b5b610e7a86828701610ddc565b9250506040610e8b86828701610b1c565b9150509250925092565b600081519050919050565b600082825260208201905092915050565b60005b83811015610ecf578082015181840152602081019050610eb4565b83811115610ede576000848401525b50505050565b6000610eef82610e95565b610ef98185610ea0565b9350610f09818560208601610eb1565b610f1281610cce565b840191505092915050565b600060c082019050610f326000830189610b5e565b610f3f6020830188610c9a565b610f4c6040830187610c9a565b8181036060830152610f5e8186610ee4565b90508181036080830152610f728185610ee4565b9050610f8160a0830184610b5e565b979650505050505050565b7f4e487b7100000000000000000000000000000000000000000000000000000000600052602260045260246000fd5b60006002820490506001821680610fd357607f821691505b60208210811415610fe757610fe6610f8c565b5b50919050565b60008190508160005260206000209050919050565b6000815461100f81610fbb565b6110198186610ea0565b94506001821660008114611034576001811461104657611079565b60ff1983168652602086019350611079565b61104f85610fed565b60005b8381101561107157815481890152600182019150602081019050611052565b808801955050505b50505092915050565b6000604082019050818103600083015261109c8185611002565b90506110ab6020830184610b5e565b9392505050565b7f4e487b7100000000000000000000000000000000000000000000000000000000600052603260045260246000fd5b7f4e487b7100000000000000000000000000000000000000000000000000000000600052601160045260246000fd5b600061111b82610afb565b91507fffffffffffffffffffffffffffffffffffffffffffffffffffffffffffffffff82141561114e5761114d6110e1565b5b60018201905091905056fea264697066735822122031f2473984868aecde534dd4efce7b4d11333ff5f9811edb0cb51ed60a2b7fdb64736f6c634300080a0033",
  "immutableReferences": {},
  "source": "pragma solidity >0.4.0 < 0.9.0;\nimport \"./Ownable.sol\";\ncontract ChainList is Ownable{\n  // state variables\n  struct Article{\n    uint id;\n    address payable seller;\n    address payable buyer;\n    string name;\n    string description;\n    uint256 price;\n  }\n  mapping(uint => Article) public articles;\n  uint articleCounter = 0;\n\n  function killContract() public onlyOwner{\n    selfdestruct(owner);\n  }\n\n  // events\n  event LogSellArticle(\n    uint indexed _id,\n    address indexed _seller,\n    string _name,\n    uint256 _price\n  );\n  event LogBuyArticle(\n    uint indexed _id,\n    address indexed _seller,\n    address indexed _buyer,\n    string _name,\n    uint256 _price\n  );\n\n  // sell an article\n  function sellArticle(string memory _name, string memory _description, uint256 _price) public {\n    articleCounter++;\n    articles[articleCounter].id = articleCounter;\n    articles[articleCounter].seller = payable(msg.sender);\n    articles[articleCounter].buyer = payable(0x0);\n    articles[articleCounter].name = _name;\n    articles[articleCounter].description = _description;\n    articles[articleCounter].price = _price;\n    emit LogSellArticle(articleCounter, articles[articleCounter].seller, articles[articleCounter].name, articles[articleCounter].price);\n  }\n\n  // get an article\n  function getNumberOfArticle() public view returns(uint) {\n    return articleCounter;\n  }\n\n  function getArticlesForSale() public view returns (uint[] memory) {\n    // prepare output array\n    uint[] memory articleIds = new uint[](articleCounter);\n\n    uint numberOfArticlesForSale = 0;\n    // iterate over articles\n    for(uint i = 1; i <= articleCounter;  i++) {\n      // keep the ID if the article is still for sale\n      if(articles[i].buyer == payable(0x0)) {\n        articleIds[numberOfArticlesForSale] = articles[i].id;\n        numberOfArticlesForSale++;\n      }\n    }\n\n    // copy the articleIds array into a smaller forSale array\n    uint[] memory forSale = new uint[](numberOfArticlesForSale);\n    for(uint j = 0; j < numberOfArticlesForSale; j++) {\n      forSale[j] = articleIds[j];\n    }\n    return forSale;\n  }\n  // buy an article\n  function buyArticle(uint _id) payable public {\n    // we check whether there is an article for sale\n    require(articleCounter > 0);\n    require(_id > 0 && _id <= articleCounter);\n    Article storage article = articles[_id]; \n    // we check that the article has not been sold yet\n    require(article.buyer == payable(0x0));\n\n    // we don't allow the seller to buy his own article\n    require(msg.sender != article.seller);\n\n    // we check that the value sent corresponds to the price of the article\n    require(msg.value == article.price);\n\n    // keep buyer's information\n    article.buyer = payable(msg.sender);\n\n    // the buyer can pay the seller\n    article.seller.transfer(msg.value);\n\n    // trigger the event\n    emit LogBuyArticle(_id, article.seller, article.buyer, article.name, article.price);\n  }\n}\n",
  "sourcePath": "C:\\Users\\Admin\\Desktop\\Index\\contracts\\ChainList.sol",
  "compiler": {
    "name": "solc",
    "version": "0.8.10+commit.fc410830.Emscripten.clang"
  },
  "schemaVersion": "3.4.3",
  "updatedAt": "2021-12-15T02:56:04.771Z",
  "networkType": "ethereum",
  "devdoc": {
    "kind": "dev",
    "methods": {},
    "version": 1
  },
  "userdoc": {
    "kind": "user",
    "methods": {},
    "version": 1
  }
}